{
  "_format": "hh-sol-artifact-1",
  "contractName": "Upload",
  "sourceName": "contracts/Upload.sol",
  "abi": [
    {
      "inputs": [],
      "stateMutability": "nonpayable",
      "type": "constructor"
    },
    {
      "inputs": [
        {
          "internalType": "string",
          "name": "_url",
          "type": "string"
        },
        {
          "internalType": "string",
          "name": "_solution",
          "type": "string"
        }
      ],
      "name": "AI_solution",
      "outputs": [],
      "stateMutability": "nonpayable",
      "type": "function"
    },
    {
      "inputs": [
        {
          "internalType": "address",
          "name": "",
          "type": "address"
        },
        {
          "internalType": "uint256",
          "name": "",
          "type": "uint256"
        }
      ],
      "name": "PendingImg",
      "outputs": [
        {
          "internalType": "string",
          "name": "",
          "type": "string"
        }
      ],
      "stateMutability": "view",
      "type": "function"
    },
    {
      "inputs": [
        {
          "internalType": "string",
          "name": "",
          "type": "string"
        }
      ],
      "name": "PendingList",
      "outputs": [
        {
          "internalType": "address",
          "name": "owner",
          "type": "address"
        },
        {
          "internalType": "string",
          "name": "imageUrl",
          "type": "string"
        },
        {
          "internalType": "string",
          "name": "AI_sol",
          "type": "string"
        },
        {
          "internalType": "address",
          "name": "reviewer",
          "type": "address"
        },
        {
          "internalType": "string",
          "name": "reviewer_sol",
          "type": "string"
        },
        {
          "internalType": "bool",
          "name": "got_AI",
          "type": "bool"
        },
        {
          "internalType": "bool",
          "name": "reviwed",
          "type": "bool"
        },
        {
          "internalType": "bool",
          "name": "verified",
          "type": "bool"
        },
        {
          "internalType": "uint256",
          "name": "verificationCount",
          "type": "uint256"
        },
        {
          "internalType": "uint256",
          "name": "true_count",
          "type": "uint256"
        },
        {
          "internalType": "uint256",
          "name": "false_count",
          "type": "uint256"
        }
      ],
      "stateMutability": "view",
      "type": "function"
    },
    {
      "inputs": [
        {
          "internalType": "address",
          "name": "_farmer",
          "type": "address"
        },
        {
          "internalType": "uint256",
          "name": "_adhar_id",
          "type": "uint256"
        }
      ],
      "name": "add_farmer",
      "outputs": [],
      "stateMutability": "nonpayable",
      "type": "function"
    },
    {
      "inputs": [
        {
          "internalType": "address",
          "name": "_scientist",
          "type": "address"
        },
        {
          "internalType": "uint256",
          "name": "_adhar_id",
          "type": "uint256"
        },
        {
          "internalType": "uint256",
          "name": "_scientist_id",
          "type": "uint256"
        }
      ],
      "name": "add_scientist",
      "outputs": [],
      "stateMutability": "nonpayable",
      "type": "function"
    },
    {
      "inputs": [
        {
          "internalType": "address",
          "name": "",
          "type": "address"
        },
        {
          "internalType": "uint256",
          "name": "",
          "type": "uint256"
        }
      ],
      "name": "closeImg",
      "outputs": [
        {
          "internalType": "string",
          "name": "",
          "type": "string"
        }
      ],
      "stateMutability": "view",
      "type": "function"
    },
    {
      "inputs": [
        {
          "internalType": "string",
          "name": "",
          "type": "string"
        }
      ],
      "name": "closeList",
      "outputs": [
        {
          "internalType": "address",
          "name": "owner",
          "type": "address"
        },
        {
          "internalType": "string",
          "name": "imageUrl",
          "type": "string"
        },
        {
          "internalType": "string",
          "name": "AI_sol",
          "type": "string"
        },
        {
          "internalType": "address",
          "name": "reviewer",
          "type": "address"
        },
        {
          "internalType": "string",
          "name": "reviewer_sol",
          "type": "string"
        },
        {
          "internalType": "bool",
          "name": "got_AI",
          "type": "bool"
        },
        {
          "internalType": "bool",
          "name": "reviwed",
          "type": "bool"
        },
        {
          "internalType": "bool",
          "name": "verified",
          "type": "bool"
        },
        {
          "internalType": "uint256",
          "name": "verificationCount",
          "type": "uint256"
        },
        {
          "internalType": "uint256",
          "name": "true_count",
          "type": "uint256"
        },
        {
          "internalType": "uint256",
          "name": "false_count",
          "type": "uint256"
        }
      ],
      "stateMutability": "view",
      "type": "function"
    },
    {
      "inputs": [
        {
          "internalType": "address",
          "name": "_user",
          "type": "address"
        }
      ],
      "name": "display_close",
      "outputs": [
        {
          "internalType": "string[]",
          "name": "",
          "type": "string[]"
        }
      ],
      "stateMutability": "view",
      "type": "function"
    },
    {
      "inputs": [
        {
          "internalType": "string",
          "name": "_url",
          "type": "string"
        }
      ],
      "name": "display_close_output",
      "outputs": [
        {
          "components": [
            {
              "internalType": "address",
              "name": "owner",
              "type": "address"
            },
            {
              "internalType": "string",
              "name": "imageUrl",
              "type": "string"
            },
            {
              "internalType": "string",
              "name": "AI_sol",
              "type": "string"
            },
            {
              "internalType": "address",
              "name": "reviewer",
              "type": "address"
            },
            {
              "internalType": "string",
              "name": "reviewer_sol",
              "type": "string"
            },
            {
              "internalType": "bool",
              "name": "got_AI",
              "type": "bool"
            },
            {
              "internalType": "bool",
              "name": "reviwed",
              "type": "bool"
            },
            {
              "internalType": "bool",
              "name": "verified",
              "type": "bool"
            },
            {
              "internalType": "address[]",
              "name": "verifiers",
              "type": "address[]"
            },
            {
              "internalType": "uint256",
              "name": "verificationCount",
              "type": "uint256"
            },
            {
              "internalType": "uint256",
              "name": "true_count",
              "type": "uint256"
            },
            {
              "internalType": "uint256",
              "name": "false_count",
              "type": "uint256"
            }
          ],
          "internalType": "struct Upload.Plant_Image",
          "name": "",
          "type": "tuple"
        }
      ],
      "stateMutability": "view",
      "type": "function"
    },
    {
      "inputs": [
        {
          "internalType": "address",
          "name": "_user",
          "type": "address"
        }
      ],
      "name": "display_farmer",
      "outputs": [
        {
          "components": [
            {
              "internalType": "uint256",
              "name": "level",
              "type": "uint256"
            },
            {
              "internalType": "uint256",
              "name": "adhar_id",
              "type": "uint256"
            },
            {
              "internalType": "uint256",
              "name": "auth_points",
              "type": "uint256"
            },
            {
              "internalType": "string[]",
              "name": "images_upload",
              "type": "string[]"
            },
            {
              "internalType": "string[]",
              "name": "image_VR",
              "type": "string[]"
            },
            {
              "internalType": "address",
              "name": "farmer_add",
              "type": "address"
            },
            {
              "internalType": "uint256",
              "name": "correctReportCount",
              "type": "uint256"
            }
          ],
          "internalType": "struct Upload.farmer",
          "name": "",
          "type": "tuple"
        }
      ],
      "stateMutability": "view",
      "type": "function"
    },
    {
      "inputs": [
        {
          "internalType": "address",
          "name": "_user",
          "type": "address"
        }
      ],
      "name": "display_final",
      "outputs": [
        {
          "internalType": "string[]",
          "name": "",
          "type": "string[]"
        }
      ],
      "stateMutability": "view",
      "type": "function"
    },
    {
      "inputs": [
        {
          "internalType": "string",
          "name": "_url",
          "type": "string"
        }
      ],
      "name": "display_final_output",
      "outputs": [
        {
          "components": [
            {
              "internalType": "address",
              "name": "owner",
              "type": "address"
            },
            {
              "internalType": "string",
              "name": "imageUrl",
              "type": "string"
            },
            {
              "internalType": "string",
              "name": "AI_sol",
              "type": "string"
            },
            {
              "internalType": "address",
              "name": "reviewer",
              "type": "address"
            },
            {
              "internalType": "string",
              "name": "reviewer_sol",
              "type": "string"
            },
            {
              "internalType": "bool",
              "name": "got_AI",
              "type": "bool"
            },
            {
              "internalType": "bool",
              "name": "reviwed",
              "type": "bool"
            },
            {
              "internalType": "bool",
              "name": "verified",
              "type": "bool"
            },
            {
              "internalType": "address[]",
              "name": "verifiers",
              "type": "address[]"
            },
            {
              "internalType": "uint256",
              "name": "verificationCount",
              "type": "uint256"
            },
            {
              "internalType": "uint256",
              "name": "true_count",
              "type": "uint256"
            },
            {
              "internalType": "uint256",
              "name": "false_count",
              "type": "uint256"
            }
          ],
          "internalType": "struct Upload.Plant_Image",
          "name": "",
          "type": "tuple"
        }
      ],
      "stateMutability": "view",
      "type": "function"
    },
    {
      "inputs": [
        {
          "internalType": "address",
          "name": "_user",
          "type": "address"
        }
      ],
      "name": "display_open",
      "outputs": [
        {
          "internalType": "string[]",
          "name": "",
          "type": "string[]"
        }
      ],
      "stateMutability": "view",
      "type": "function"
    },
    {
      "inputs": [
        {
          "internalType": "string",
          "name": "_url",
          "type": "string"
        }
      ],
      "name": "display_open_output",
      "outputs": [
        {
          "components": [
            {
              "internalType": "address",
              "name": "owner",
              "type": "address"
            },
            {
              "internalType": "string",
              "name": "imageUrl",
              "type": "string"
            },
            {
              "internalType": "string",
              "name": "AI_sol",
              "type": "string"
            },
            {
              "internalType": "address",
              "name": "reviewer",
              "type": "address"
            },
            {
              "internalType": "string",
              "name": "reviewer_sol",
              "type": "string"
            },
            {
              "internalType": "bool",
              "name": "got_AI",
              "type": "bool"
            },
            {
              "internalType": "bool",
              "name": "reviwed",
              "type": "bool"
            },
            {
              "internalType": "bool",
              "name": "verified",
              "type": "bool"
            },
            {
              "internalType": "address[]",
              "name": "verifiers",
              "type": "address[]"
            },
            {
              "internalType": "uint256",
              "name": "verificationCount",
              "type": "uint256"
            },
            {
              "internalType": "uint256",
              "name": "true_count",
              "type": "uint256"
            },
            {
              "internalType": "uint256",
              "name": "false_count",
              "type": "uint256"
            }
          ],
          "internalType": "struct Upload.Plant_Image",
          "name": "",
          "type": "tuple"
        }
      ],
      "stateMutability": "view",
      "type": "function"
    },
    {
      "inputs": [
        {
          "internalType": "address",
          "name": "_user",
          "type": "address"
        }
      ],
      "name": "display_scientist",
      "outputs": [
        {
          "components": [
            {
              "internalType": "uint256",
              "name": "level",
              "type": "uint256"
            },
            {
              "internalType": "uint256",
              "name": "adhar_id",
              "type": "uint256"
            },
            {
              "internalType": "uint256",
              "name": "auth_points",
              "type": "uint256"
            },
            {
              "internalType": "uint256",
              "name": "scientist_id",
              "type": "uint256"
            },
            {
              "internalType": "string[]",
              "name": "image_VR",
              "type": "string[]"
            },
            {
              "internalType": "address",
              "name": "scientist_add",
              "type": "address"
            },
            {
              "internalType": "uint256",
              "name": "correctReportCount",
              "type": "uint256"
            }
          ],
          "internalType": "struct Upload.scientist",
          "name": "",
          "type": "tuple"
        }
      ],
      "stateMutability": "view",
      "type": "function"
    },
    {
      "inputs": [
        {
          "internalType": "uint256",
          "name": "",
          "type": "uint256"
        }
      ],
      "name": "farmers",
      "outputs": [
        {
          "internalType": "address",
          "name": "",
          "type": "address"
        }
      ],
      "stateMutability": "view",
      "type": "function"
    },
    {
      "inputs": [
        {
          "internalType": "address",
          "name": "",
          "type": "address"
        },
        {
          "internalType": "uint256",
          "name": "",
          "type": "uint256"
        }
      ],
      "name": "finalImg",
      "outputs": [
        {
          "internalType": "string",
          "name": "",
          "type": "string"
        }
      ],
      "stateMutability": "view",
      "type": "function"
    },
    {
      "inputs": [
        {
          "internalType": "string",
          "name": "",
          "type": "string"
        }
      ],
      "name": "finalList",
      "outputs": [
        {
          "internalType": "address",
          "name": "owner",
          "type": "address"
        },
        {
          "internalType": "string",
          "name": "imageUrl",
          "type": "string"
        },
        {
          "internalType": "string",
          "name": "AI_sol",
          "type": "string"
        },
        {
          "internalType": "address",
          "name": "reviewer",
          "type": "address"
        },
        {
          "internalType": "string",
          "name": "reviewer_sol",
          "type": "string"
        },
        {
          "internalType": "bool",
          "name": "got_AI",
          "type": "bool"
        },
        {
          "internalType": "bool",
          "name": "reviwed",
          "type": "bool"
        },
        {
          "internalType": "bool",
          "name": "verified",
          "type": "bool"
        },
        {
          "internalType": "uint256",
          "name": "verificationCount",
          "type": "uint256"
        },
        {
          "internalType": "uint256",
          "name": "true_count",
          "type": "uint256"
        },
        {
          "internalType": "uint256",
          "name": "false_count",
          "type": "uint256"
        }
      ],
      "stateMutability": "view",
      "type": "function"
    },
    {
      "inputs": [
        {
          "internalType": "uint256",
          "name": "",
          "type": "uint256"
        }
      ],
      "name": "final_images",
      "outputs": [
        {
          "internalType": "string",
          "name": "",
          "type": "string"
        }
      ],
      "stateMutability": "view",
      "type": "function"
    },
    {
      "inputs": [],
      "name": "get_farmers",
      "outputs": [
        {
          "internalType": "address[]",
          "name": "",
          "type": "address[]"
        }
      ],
      "stateMutability": "view",
      "type": "function"
    },
    {
      "inputs": [],
      "name": "get_final_images",
      "outputs": [
        {
          "internalType": "string[]",
          "name": "",
          "type": "string[]"
        }
      ],
      "stateMutability": "view",
      "type": "function"
    },
    {
      "inputs": [],
      "name": "get_images",
      "outputs": [
        {
          "internalType": "string[]",
          "name": "",
          "type": "string[]"
        }
      ],
      "stateMutability": "view",
      "type": "function"
    },
    {
      "inputs": [],
      "name": "get_scientits",
      "outputs": [
        {
          "internalType": "address[]",
          "name": "",
          "type": "address[]"
        }
      ],
      "stateMutability": "view",
      "type": "function"
    },
    {
      "inputs": [
        {
          "internalType": "uint256",
          "name": "",
          "type": "uint256"
        }
      ],
      "name": "images",
      "outputs": [
        {
          "internalType": "string",
          "name": "",
          "type": "string"
        }
      ],
      "stateMutability": "view",
      "type": "function"
    },
    {
      "inputs": [
        {
          "internalType": "address",
          "name": "",
          "type": "address"
        },
        {
          "internalType": "uint256",
          "name": "",
          "type": "uint256"
        }
      ],
      "name": "openImg",
      "outputs": [
        {
          "internalType": "string",
          "name": "",
          "type": "string"
        }
      ],
      "stateMutability": "view",
      "type": "function"
    },
    {
      "inputs": [
        {
          "internalType": "string",
          "name": "",
          "type": "string"
        }
      ],
      "name": "openList",
      "outputs": [
        {
          "internalType": "address",
          "name": "owner",
          "type": "address"
        },
        {
          "internalType": "string",
          "name": "imageUrl",
          "type": "string"
        },
        {
          "internalType": "string",
          "name": "AI_sol",
          "type": "string"
        },
        {
          "internalType": "address",
          "name": "reviewer",
          "type": "address"
        },
        {
          "internalType": "string",
          "name": "reviewer_sol",
          "type": "string"
        },
        {
          "internalType": "bool",
          "name": "got_AI",
          "type": "bool"
        },
        {
          "internalType": "bool",
          "name": "reviwed",
          "type": "bool"
        },
        {
          "internalType": "bool",
          "name": "verified",
          "type": "bool"
        },
        {
          "internalType": "uint256",
          "name": "verificationCount",
          "type": "uint256"
        },
        {
          "internalType": "uint256",
          "name": "true_count",
          "type": "uint256"
        },
        {
          "internalType": "uint256",
          "name": "false_count",
          "type": "uint256"
        }
      ],
      "stateMutability": "view",
      "type": "function"
    },
    {
      "inputs": [
        {
          "internalType": "string",
          "name": "_url",
          "type": "string"
        },
        {
          "internalType": "string",
          "name": "_solution",
          "type": "string"
        }
      ],
      "name": "review_image",
      "outputs": [],
      "stateMutability": "nonpayable",
      "type": "function"
    },
    {
      "inputs": [
        {
          "internalType": "uint256",
          "name": "",
          "type": "uint256"
        }
      ],
      "name": "scientists",
      "outputs": [
        {
          "internalType": "address",
          "name": "",
          "type": "address"
        }
      ],
      "stateMutability": "view",
      "type": "function"
    },
    {
      "inputs": [
        {
          "internalType": "address",
          "name": "_user",
          "type": "address"
        },
        {
          "internalType": "string",
          "name": "_url",
          "type": "string"
        }
      ],
      "name": "upload_image",
      "outputs": [],
      "stateMutability": "nonpayable",
      "type": "function"
    },
    {
      "inputs": [
        {
          "internalType": "address",
          "name": "",
          "type": "address"
        }
      ],
      "name": "verifiers_map",
      "outputs": [
        {
          "internalType": "bool",
          "name": "",
          "type": "bool"
        }
      ],
      "stateMutability": "view",
      "type": "function"
    },
    {
      "inputs": [
        {
          "internalType": "string",
          "name": "_url",
          "type": "string"
        },
        {
          "internalType": "bool",
          "name": "_choice",
          "type": "bool"
        }
      ],
      "name": "verify_image",
      "outputs": [],
      "stateMutability": "nonpayable",
      "type": "function"
    }
  ],
  "bytecode": "0x608060405234801561001057600080fd5b50336000806101000a81548173ffffffffffffffffffffffffffffffffffffffff021916908373ffffffffffffffffffffffffffffffffffffffff160217905550615fe180620000616000396000f3fe608060405234801561001057600080fd5b50600436106101e55760003560e01c806376477e2f1161010f578063a0639160116100a2578063d5b8c35c11610071578063d5b8c35c14610676578063eeeece50146106a6578063f20a325a146106d6578063fafc5e0514610706576101e5565b8063a0639160146105f2578063a98307c61461060e578063b567d6a31461062a578063b8af0f791461065a576101e5565b806384856482116100de57806384856482146105285780638aa9e631146105585780638afdd6691461058857806392ee8345146105b8576101e5565b806376477e2f1461047257806376f1d5f8146104ac5780637aa4e76c146104c8578063836b03cd146104f8576101e5565b806339203b0f116101875780635b46b289116101565780635b46b289146103a85780635c307315146103d857806367f74545146104085780636aa4b03c14610442576101e5565b806339203b0f1461030c5780633a1d99971461032a578063421d73cc1461035a57806355975e571461038a576101e5565b80631fa675f0116101c35780631fa675f014610272578063201e5414146102a25780632aa58656146102c0578063314247e7146102dc576101e5565b80631236dfeb146101ea5780631a0153501461021a5780631b91831814610254575b600080fd5b61020460048036038101906101ff9190614c13565b610722565b6040516102119190614ce3565b60405180910390f35b610234600480360381019061022f9190614e3a565b6107db565b60405161024b9b9a99989796959493929190614ebc565b60405180910390f35b61025c610a4a565b604051610269919061503a565b60405180910390f35b61028c60048036038101906102879190614c13565b610ad8565b6040516102999190614ce3565b60405180910390f35b6102aa610b91565b6040516102b79190615168565b60405180910390f35b6102da60048036038101906102d5919061518a565b610c6a565b005b6102f660048036038101906102f19190614e3a565b611073565b60405161030391906153a8565b60405180910390f35b61031461140b565b6040516103219190615168565b60405180910390f35b610344600480360381019061033f9190614c13565b6114e4565b6040516103519190614ce3565b60405180910390f35b610374600480360381019061036f91906153ca565b61159d565b6040516103819190615168565b60405180910390f35b6103926116b5565b60405161039f919061503a565b60405180910390f35b6103c260048036038101906103bd91906153ca565b611743565b6040516103cf9190615520565b60405180910390f35b6103f260048036038101906103ed91906153ca565b6119cc565b6040516103ff9190615542565b60405180910390f35b610422600480360381019061041d9190614e3a565b6119ec565b6040516104399b9a99989796959493929190614ebc565b60405180910390f35b61045c600480360381019061045791906153ca565b611c5b565b6040516104699190615168565b60405180910390f35b61048c60048036038101906104879190614e3a565b611d73565b6040516104a39b9a99989796959493929190614ebc565b60405180910390f35b6104c660048036038101906104c1919061555d565b611fe2565b005b6104e260048036038101906104dd9190614c13565b612327565b6040516104ef9190614ce3565b60405180910390f35b610512600480360381019061050d9190614e3a565b6123e0565b60405161051f91906153a8565b60405180910390f35b610542600480360381019061053d91906155b0565b612778565b60405161054f9190614ce3565b60405180910390f35b610572600480360381019061056d91906155b0565b612824565b60405161057f91906155dd565b60405180910390f35b6105a2600480360381019061059d91906155b0565b612863565b6040516105af91906155dd565b60405180910390f35b6105d260048036038101906105cd9190614e3a565b6128a2565b6040516105e99b9a99989796959493929190614ebc565b60405180910390f35b61060c60048036038101906106079190615624565b612b11565b005b61062860048036038101906106239190615680565b6138cc565b005b610644600480360381019061063f91906153ca565b613a2f565b6040516106519190615778565b60405180910390f35b610674600480360381019061066f9190614c13565b613be9565b005b610690600480360381019061068b91906155b0565b613e58565b60405161069d9190614ce3565b60405180910390f35b6106c060048036038101906106bb9190614e3a565b613f04565b6040516106cd91906153a8565b60405180910390f35b6106f060048036038101906106eb91906153ca565b61429c565b6040516106fd9190615168565b60405180910390f35b610720600480360381019061071b919061518a565b6143b4565b005b600f602052816000526040600020818154811061073e57600080fd5b9060005260206000200160009150915050805461075a906157c9565b80601f0160208091040260200160405190810160405280929190818152602001828054610786906157c9565b80156107d35780601f106107a8576101008083540402835291602001916107d3565b820191906000526020600020905b8154815290600101906020018083116107b657829003601f168201915b505050505081565b600c818051602081018201805184825260208301602085012081835280955050505050506000915090508060000160009054906101000a900473ffffffffffffffffffffffffffffffffffffffff169080600101805461083a906157c9565b80601f0160208091040260200160405190810160405280929190818152602001828054610866906157c9565b80156108b35780601f10610888576101008083540402835291602001916108b3565b820191906000526020600020905b81548152906001019060200180831161089657829003601f168201915b5050505050908060020180546108c8906157c9565b80601f01602080910402602001604051908101604052809291908181526020018280546108f4906157c9565b80156109415780601f1061091657610100808354040283529160200191610941565b820191906000526020600020905b81548152906001019060200180831161092457829003601f168201915b5050505050908060030160009054906101000a900473ffffffffffffffffffffffffffffffffffffffff169080600401805461097c906157c9565b80601f01602080910402602001604051908101604052809291908181526020018280546109a8906157c9565b80156109f55780601f106109ca576101008083540402835291602001916109f5565b820191906000526020600020905b8154815290600101906020018083116109d857829003601f168201915b5050505050908060050160009054906101000a900460ff16908060050160019054906101000a900460ff16908060050160029054906101000a900460ff1690806007015490806008015490806009015490508b565b60606005805480602002602001604051908101604052809291908181526020018280548015610ace57602002820191906000526020600020905b8160009054906101000a900473ffffffffffffffffffffffffffffffffffffffff1673ffffffffffffffffffffffffffffffffffffffff1681526020019060010190808311610a84575b5050505050905090565b600e6020528160005260406000208181548110610af457600080fd5b90600052602060002001600091509150508054610b10906157c9565b80601f0160208091040260200160405190810160405280929190818152602001828054610b3c906157c9565b8015610b895780601f10610b5e57610100808354040283529160200191610b89565b820191906000526020600020905b815481529060010190602001808311610b6c57829003601f168201915b505050505081565b60606007805480602002602001604051908101604052809291908181526020016000905b82821015610c61578382906000526020600020018054610bd4906157c9565b80601f0160208091040260200160405190810160405280929190818152602001828054610c00906157c9565b8015610c4d5780601f10610c2257610100808354040283529160200191610c4d565b820191906000526020600020905b815481529060010190602001808311610c3057829003601f168201915b505050505081526020019060010190610bb5565b50505050905090565b6000600a83604051610c7c9190615836565b90815260200160405180910390209050600015158160050160009054906101000a900460ff16151503610ef95781816002019081610cba91906159f9565b5060018160050160006101000a81548160ff02191690831515021790555080600b84604051610ce99190615836565b90815260200160405180910390206000820160009054906101000a900473ffffffffffffffffffffffffffffffffffffffff168160000160006101000a81548173ffffffffffffffffffffffffffffffffffffffff021916908373ffffffffffffffffffffffffffffffffffffffff16021790555060018201816001019081610d729190615ae1565b5060028201816002019081610d879190615ae1565b506003820160009054906101000a900473ffffffffffffffffffffffffffffffffffffffff168160030160006101000a81548173ffffffffffffffffffffffffffffffffffffffff021916908373ffffffffffffffffffffffffffffffffffffffff16021790555060048201816004019081610e039190615ae1565b506005820160009054906101000a900460ff168160050160006101000a81548160ff0219169083151502179055506005820160019054906101000a900460ff168160050160016101000a81548160ff0219169083151502179055506005820160029054906101000a900460ff168160050160026101000a81548160ff0219169083151502179055506006820181600601908054610ea1929190614962565b50600782015481600701556008820154816008015560098201548160090155905050600783908060018154018082558091505060019003906000526020600020016000909190919091509081610ef791906159f9565b505b600a83604051610f099190615836565b9081526020016040518091039020600080820160006101000a81549073ffffffffffffffffffffffffffffffffffffffff0219169055600182016000610f4f91906149b4565b600282016000610f5f91906149b4565b6003820160006101000a81549073ffffffffffffffffffffffffffffffffffffffff0219169055600482016000610f9691906149b4565b6005820160006101000a81549060ff02191690556005820160016101000a81549060ff02191690556005820160026101000a81549060ff0219169055600682016000610fe291906149f4565b6007820160009055600882016000905560098201600090555050600f60003373ffffffffffffffffffffffffffffffffffffffff1673ffffffffffffffffffffffffffffffffffffffff1681526020019081526020016000208390806001815401808255809150506001900390600052602060002001600090919091909150908161106d91906159f9565b50505050565b61107b614a15565b600c8260405161108b9190615836565b9081526020016040518091039020604051806101800160405290816000820160009054906101000a900473ffffffffffffffffffffffffffffffffffffffff1673ffffffffffffffffffffffffffffffffffffffff1673ffffffffffffffffffffffffffffffffffffffff16815260200160018201805461110b906157c9565b80601f0160208091040260200160405190810160405280929190818152602001828054611137906157c9565b80156111845780601f1061115957610100808354040283529160200191611184565b820191906000526020600020905b81548152906001019060200180831161116757829003601f168201915b5050505050815260200160028201805461119d906157c9565b80601f01602080910402602001604051908101604052809291908181526020018280546111c9906157c9565b80156112165780601f106111eb57610100808354040283529160200191611216565b820191906000526020600020905b8154815290600101906020018083116111f957829003601f168201915b505050505081526020016003820160009054906101000a900473ffffffffffffffffffffffffffffffffffffffff1673ffffffffffffffffffffffffffffffffffffffff1673ffffffffffffffffffffffffffffffffffffffff168152602001600482018054611285906157c9565b80601f01602080910402602001604051908101604052809291908181526020018280546112b1906157c9565b80156112fe5780601f106112d3576101008083540402835291602001916112fe565b820191906000526020600020905b8154815290600101906020018083116112e157829003601f168201915b505050505081526020016005820160009054906101000a900460ff161515151581526020016005820160019054906101000a900460ff161515151581526020016005820160029054906101000a900460ff16151515158152602001600682018054806020026020016040519081016040528092919081815260200182805480156113dd57602002820191906000526020600020905b8160009054906101000a900473ffffffffffffffffffffffffffffffffffffffff1673ffffffffffffffffffffffffffffffffffffffff1681526020019060010190808311611393575b5050505050815260200160078201548152602001600882015481526020016009820154815250509050919050565b60606008805480602002602001604051908101604052809291908181526020016000905b828210156114db57838290600052602060002001805461144e906157c9565b80601f016020809104026020016040519081016040528092919081815260200182805461147a906157c9565b80156114c75780601f1061149c576101008083540402835291602001916114c7565b820191906000526020600020905b8154815290600101906020018083116114aa57829003601f168201915b50505050508152602001906001019061142f565b50505050905090565b6011602052816000526040600020818154811061150057600080fd5b9060005260206000200160009150915050805461151c906157c9565b80601f0160208091040260200160405190810160405280929190818152602001828054611548906157c9565b80156115955780601f1061156a57610100808354040283529160200191611595565b820191906000526020600020905b81548152906001019060200180831161157857829003601f168201915b505050505081565b6060601160008373ffffffffffffffffffffffffffffffffffffffff1673ffffffffffffffffffffffffffffffffffffffff168152602001908152602001600020805480602002602001604051908101604052809291908181526020016000905b828210156116aa57838290600052602060002001805461161d906157c9565b80601f0160208091040260200160405190810160405280929190818152602001828054611649906157c9565b80156116965780601f1061166b57610100808354040283529160200191611696565b820191906000526020600020905b81548152906001019060200180831161167957829003601f168201915b5050505050815260200190600101906115fe565b505050509050919050565b6060600680548060200260200160405190810160405280929190818152602001828054801561173957602002820191906000526020600020905b8160009054906101000a900473ffffffffffffffffffffffffffffffffffffffff1673ffffffffffffffffffffffffffffffffffffffff16815260200190600101908083116116ef575b5050505050905090565b61174b614aa8565b600260008373ffffffffffffffffffffffffffffffffffffffff1673ffffffffffffffffffffffffffffffffffffffff1681526020019081526020016000206040518060e001604052908160008201548152602001600182015481526020016002820154815260200160038201805480602002602001604051908101604052809291908181526020016000905b828210156118845783829060005260206000200180546117f7906157c9565b80601f0160208091040260200160405190810160405280929190818152602001828054611823906157c9565b80156118705780601f1061184557610100808354040283529160200191611870565b820191906000526020600020905b81548152906001019060200180831161185357829003601f168201915b5050505050815260200190600101906117d8565b50505050815260200160048201805480602002602001604051908101604052809291908181526020016000905b8282101561195d5783829060005260206000200180546118d0906157c9565b80601f01602080910402602001604051908101604052809291908181526020018280546118fc906157c9565b80156119495780601f1061191e57610100808354040283529160200191611949565b820191906000526020600020905b81548152906001019060200180831161192c57829003601f168201915b5050505050815260200190600101906118b1565b5050505081526020016005820160009054906101000a900473ffffffffffffffffffffffffffffffffffffffff1673ffffffffffffffffffffffffffffffffffffffff1673ffffffffffffffffffffffffffffffffffffffff1681526020016006820154815250509050919050565b60096020528060005260406000206000915054906101000a900460ff1681565b600b818051602081018201805184825260208301602085012081835280955050505050506000915090508060000160009054906101000a900473ffffffffffffffffffffffffffffffffffffffff1690806001018054611a4b906157c9565b80601f0160208091040260200160405190810160405280929190818152602001828054611a77906157c9565b8015611ac45780601f10611a9957610100808354040283529160200191611ac4565b820191906000526020600020905b815481529060010190602001808311611aa757829003601f168201915b505050505090806002018054611ad9906157c9565b80601f0160208091040260200160405190810160405280929190818152602001828054611b05906157c9565b8015611b525780601f10611b2757610100808354040283529160200191611b52565b820191906000526020600020905b815481529060010190602001808311611b3557829003601f168201915b5050505050908060030160009054906101000a900473ffffffffffffffffffffffffffffffffffffffff1690806004018054611b8d906157c9565b80601f0160208091040260200160405190810160405280929190818152602001828054611bb9906157c9565b8015611c065780601f10611bdb57610100808354040283529160200191611c06565b820191906000526020600020905b815481529060010190602001808311611be957829003601f168201915b5050505050908060050160009054906101000a900460ff16908060050160019054906101000a900460ff16908060050160029054906101000a900460ff1690806007015490806008015490806009015490508b565b6060601060008373ffffffffffffffffffffffffffffffffffffffff1673ffffffffffffffffffffffffffffffffffffffff168152602001908152602001600020805480602002602001604051908101604052809291908181526020016000905b82821015611d68578382906000526020600020018054611cdb906157c9565b80601f0160208091040260200160405190810160405280929190818152602001828054611d07906157c9565b8015611d545780601f10611d2957610100808354040283529160200191611d54565b820191906000526020600020905b815481529060010190602001808311611d3757829003601f168201915b505050505081526020019060010190611cbc565b505050509050919050565b600a818051602081018201805184825260208301602085012081835280955050505050506000915090508060000160009054906101000a900473ffffffffffffffffffffffffffffffffffffffff1690806001018054611dd2906157c9565b80601f0160208091040260200160405190810160405280929190818152602001828054611dfe906157c9565b8015611e4b5780601f10611e2057610100808354040283529160200191611e4b565b820191906000526020600020905b815481529060010190602001808311611e2e57829003601f168201915b505050505090806002018054611e60906157c9565b80601f0160208091040260200160405190810160405280929190818152602001828054611e8c906157c9565b8015611ed95780601f10611eae57610100808354040283529160200191611ed9565b820191906000526020600020905b815481529060010190602001808311611ebc57829003601f168201915b5050505050908060030160009054906101000a900473ffffffffffffffffffffffffffffffffffffffff1690806004018054611f14906157c9565b80601f0160208091040260200160405190810160405280929190818152602001828054611f40906157c9565b8015611f8d5780601f10611f6257610100808354040283529160200191611f8d565b820191906000526020600020905b815481529060010190602001808311611f7057829003601f168201915b5050505050908060050160009054906101000a900460ff16908060050160019054906101000a900460ff16908060050160029054906101000a900460ff1690806007015490806008015490806009015490508b565b60008054906101000a900473ffffffffffffffffffffffffffffffffffffffff1673ffffffffffffffffffffffffffffffffffffffff163373ffffffffffffffffffffffffffffffffffffffff1614612070576040517f08c379a000000000000000000000000000000000000000000000000000000000815260040161206790615c15565b60405180910390fd5b82600160008573ffffffffffffffffffffffffffffffffffffffff1673ffffffffffffffffffffffffffffffffffffffff16815260200190815260200160002060050160006101000a81548173ffffffffffffffffffffffffffffffffffffffff021916908373ffffffffffffffffffffffffffffffffffffffff1602179055506002600160008573ffffffffffffffffffffffffffffffffffffffff1673ffffffffffffffffffffffffffffffffffffffff168152602001908152602001600020600001819055506000600160008573ffffffffffffffffffffffffffffffffffffffff1673ffffffffffffffffffffffffffffffffffffffff1681526020019081526020016000206002018190555081600160008573ffffffffffffffffffffffffffffffffffffffff1673ffffffffffffffffffffffffffffffffffffffff1681526020019081526020016000206001018190555080600160008573ffffffffffffffffffffffffffffffffffffffff1673ffffffffffffffffffffffffffffffffffffffff168152602001908152602001600020600301819055506001600960008573ffffffffffffffffffffffffffffffffffffffff1673ffffffffffffffffffffffffffffffffffffffff16815260200190815260200160002060006101000a81548160ff0219169083151502179055506001600360008573ffffffffffffffffffffffffffffffffffffffff1673ffffffffffffffffffffffffffffffffffffffff16815260200190815260200160002060006101000a81548160ff0219169083151502179055506006839080600181540180825580915050600190039060005260206000200160009091909190916101000a81548173ffffffffffffffffffffffffffffffffffffffff021916908373ffffffffffffffffffffffffffffffffffffffff160217905550505050565b6010602052816000526040600020818154811061234357600080fd5b9060005260206000200160009150915050805461235f906157c9565b80601f016020809104026020016040519081016040528092919081815260200182805461238b906157c9565b80156123d85780601f106123ad576101008083540402835291602001916123d8565b820191906000526020600020905b8154815290600101906020018083116123bb57829003601f168201915b505050505081565b6123e8614a15565b600b826040516123f89190615836565b9081526020016040518091039020604051806101800160405290816000820160009054906101000a900473ffffffffffffffffffffffffffffffffffffffff1673ffffffffffffffffffffffffffffffffffffffff1673ffffffffffffffffffffffffffffffffffffffff168152602001600182018054612478906157c9565b80601f01602080910402602001604051908101604052809291908181526020018280546124a4906157c9565b80156124f15780601f106124c6576101008083540402835291602001916124f1565b820191906000526020600020905b8154815290600101906020018083116124d457829003601f168201915b5050505050815260200160028201805461250a906157c9565b80601f0160208091040260200160405190810160405280929190818152602001828054612536906157c9565b80156125835780601f1061255857610100808354040283529160200191612583565b820191906000526020600020905b81548152906001019060200180831161256657829003601f168201915b505050505081526020016003820160009054906101000a900473ffffffffffffffffffffffffffffffffffffffff1673ffffffffffffffffffffffffffffffffffffffff1673ffffffffffffffffffffffffffffffffffffffff1681526020016004820180546125f2906157c9565b80601f016020809104026020016040519081016040528092919081815260200182805461261e906157c9565b801561266b5780601f106126405761010080835404028352916020019161266b565b820191906000526020600020905b81548152906001019060200180831161264e57829003601f168201915b505050505081526020016005820160009054906101000a900460ff161515151581526020016005820160019054906101000a900460ff161515151581526020016005820160029054906101000a900460ff161515151581526020016006820180548060200260200160405190810160405280929190818152602001828054801561274a57602002820191906000526020600020905b8160009054906101000a900473ffffffffffffffffffffffffffffffffffffffff1673ffffffffffffffffffffffffffffffffffffffff1681526020019060010190808311612700575b5050505050815260200160078201548152602001600882015481526020016009820154815250509050919050565b6007818154811061278857600080fd5b9060005260206000200160009150905080546127a3906157c9565b80601f01602080910402602001604051908101604052809291908181526020018280546127cf906157c9565b801561281c5780601f106127f15761010080835404028352916020019161281c565b820191906000526020600020905b8154815290600101906020018083116127ff57829003601f168201915b505050505081565b6006818154811061283457600080fd5b906000526020600020016000915054906101000a900473ffffffffffffffffffffffffffffffffffffffff1681565b6005818154811061287357600080fd5b906000526020600020016000915054906101000a900473ffffffffffffffffffffffffffffffffffffffff1681565b600d818051602081018201805184825260208301602085012081835280955050505050506000915090508060000160009054906101000a900473ffffffffffffffffffffffffffffffffffffffff1690806001018054612901906157c9565b80601f016020809104026020016040519081016040528092919081815260200182805461292d906157c9565b801561297a5780601f1061294f5761010080835404028352916020019161297a565b820191906000526020600020905b81548152906001019060200180831161295d57829003601f168201915b50505050509080600201805461298f906157c9565b80601f01602080910402602001604051908101604052809291908181526020018280546129bb906157c9565b8015612a085780601f106129dd57610100808354040283529160200191612a08565b820191906000526020600020905b8154815290600101906020018083116129eb57829003601f168201915b5050505050908060030160009054906101000a900473ffffffffffffffffffffffffffffffffffffffff1690806004018054612a43906157c9565b80601f0160208091040260200160405190810160405280929190818152602001828054612a6f906157c9565b8015612abc5780601f10612a9157610100808354040283529160200191612abc565b820191906000526020600020905b815481529060010190602001808311612a9f57829003601f168201915b5050505050908060050160009054906101000a900460ff16908060050160019054906101000a900460ff16908060050160029054906101000a900460ff1690806007015490806008015490806009015490508b565b600960003373ffffffffffffffffffffffffffffffffffffffff1673ffffffffffffffffffffffffffffffffffffffff16815260200190815260200160002060009054906101000a900460ff16612b9d576040517f08c379a0000000000000000000000000000000000000000000000000000000008152600401612b9490615c81565b60405180910390fd5b6000600c83604051612baf9190615836565b908152602001604051809103902090503373ffffffffffffffffffffffffffffffffffffffff16600c84604051612be69190615836565b908152602001604051809103902060030160009054906101000a900473ffffffffffffffffffffffffffffffffffffffff1673ffffffffffffffffffffffffffffffffffffffff1603612c6e576040517f08c379a0000000000000000000000000000000000000000000000000000000008152600401612c6590615ced565b60405180910390fd5b3373ffffffffffffffffffffffffffffffffffffffff16600c84604051612c959190615836565b908152602001604051809103902060000160009054906101000a900473ffffffffffffffffffffffffffffffffffffffff1673ffffffffffffffffffffffffffffffffffffffff1603612d1d576040517f08c379a0000000000000000000000000000000000000000000000000000000008152600401612d1490615d7f565b60405180910390fd5b6000805b8260060180549050811015612dbb573373ffffffffffffffffffffffffffffffffffffffff16836006018281548110612d5d57612d5c615d9f565b5b9060005260206000200160009054906101000a900473ffffffffffffffffffffffffffffffffffffffff1673ffffffffffffffffffffffffffffffffffffffff1603612da857600191505b8080612db390615dfd565b915050612d21565b506000151581151514612e03576040517f08c379a0000000000000000000000000000000000000000000000000000000008152600401612dfa90615eb7565b60405180910390fd5b81600601339080600181540180825580915050600190039060005260206000200160009091909190916101000a81548173ffffffffffffffffffffffffffffffffffffffff021916908373ffffffffffffffffffffffffffffffffffffffff16021790555060018260050160026101000a81548160ff02191690831515021790555060018260070154612e969190615ed7565b8260070181905550600060116000600c87604051612eb49190615836565b908152602001604051809103902060000160009054906101000a900473ffffffffffffffffffffffffffffffffffffffff1673ffffffffffffffffffffffffffffffffffffffff1673ffffffffffffffffffffffffffffffffffffffff168152602001908152602001600020805480602002602001604051908101604052809291908181526020016000905b82821015612fec578382906000526020600020018054612f5f906157c9565b80601f0160208091040260200160405190810160405280929190818152602001828054612f8b906157c9565b8015612fd85780601f10612fad57610100808354040283529160200191612fd8565b820191906000526020600020905b815481529060010190602001808311612fbb57829003601f168201915b505050505081526020019060010190612f40565b5050505090506000805b825181101561308457866040516020016130109190615836565b6040516020818303038152906040528051906020012083828151811061303957613038615d9f565b5b60200260200101516040516020016130519190615836565b604051602081830303815290604052805190602001200361307157600191505b808061307c90615dfd565b915050612ff6565b50600584600701541061342e5783600901548460080154111561326957600115158515151480156130fe5750600360003373ffffffffffffffffffffffffffffffffffffffff1673ffffffffffffffffffffffffffffffffffffffff16815260200190815260200160002060009054906101000a900460ff165b156131b557600184600801546131149190615ed7565b846008018190555060018060003373ffffffffffffffffffffffffffffffffffffffff1673ffffffffffffffffffffffffffffffffffffffff1681526020019081526020016000206002015461316a9190615ed7565b600160003373ffffffffffffffffffffffffffffffffffffffff1673ffffffffffffffffffffffffffffffffffffffff16815260200190815260200160002060020181905550613264565b600184600801546131c69190615ed7565b84600801819055506001600260003373ffffffffffffffffffffffffffffffffffffffff1673ffffffffffffffffffffffffffffffffffffffff1681526020019081526020016000206002015461321d9190615ed7565b600260003373ffffffffffffffffffffffffffffffffffffffff1673ffffffffffffffffffffffffffffffffffffffff168152602001908152602001600020600201819055505b61342d565b600115158515151480156132c65750600360003373ffffffffffffffffffffffffffffffffffffffff1673ffffffffffffffffffffffffffffffffffffffff16815260200190815260200160002060009054906101000a900460ff165b1561337d57600184600801546132dc9190615ed7565b846008018190555060018060003373ffffffffffffffffffffffffffffffffffffffff1673ffffffffffffffffffffffffffffffffffffffff168152602001908152602001600020600201546133329190615f0b565b600160003373ffffffffffffffffffffffffffffffffffffffff1673ffffffffffffffffffffffffffffffffffffffff1681526020019081526020016000206002018190555061342c565b6001846008015461338e9190615ed7565b84600801819055506001600260003373ffffffffffffffffffffffffffffffffffffffff1673ffffffffffffffffffffffffffffffffffffffff168152602001908152602001600020600201546133e59190615f0b565b600260003373ffffffffffffffffffffffffffffffffffffffff1673ffffffffffffffffffffffffffffffffffffffff168152602001908152602001600020600201819055505b5b5b60001515811515036134ee5760116000600c8860405161344e9190615836565b908152602001604051809103902060000160009054906101000a900473ffffffffffffffffffffffffffffffffffffffff1673ffffffffffffffffffffffffffffffffffffffff1673ffffffffffffffffffffffffffffffffffffffff168152602001908152602001600020869080600181540180825580915050600190039060005260206000200160009091909190915090816134ec91906159f9565b505b83600d876040516134ff9190615836565b90815260200160405180910390206000820160009054906101000a900473ffffffffffffffffffffffffffffffffffffffff168160000160006101000a81548173ffffffffffffffffffffffffffffffffffffffff021916908373ffffffffffffffffffffffffffffffffffffffff160217905550600182018160010190816135889190615ae1565b506002820181600201908161359d9190615ae1565b506003820160009054906101000a900473ffffffffffffffffffffffffffffffffffffffff168160030160006101000a81548173ffffffffffffffffffffffffffffffffffffffff021916908373ffffffffffffffffffffffffffffffffffffffff160217905550600482018160040190816136199190615ae1565b506005820160009054906101000a900460ff168160050160006101000a81548160ff0219169083151502179055506005820160019054906101000a900460ff168160050160016101000a81548160ff0219169083151502179055506005820160029054906101000a900460ff168160050160026101000a81548160ff02191690831515021790555060068201816006019080546136b7929190614962565b5060078201548160070155600882015481600801556009820154816009015590505083600c876040516136ea9190615836565b90815260200160405180910390206000820160009054906101000a900473ffffffffffffffffffffffffffffffffffffffff168160000160006101000a81548173ffffffffffffffffffffffffffffffffffffffff021916908373ffffffffffffffffffffffffffffffffffffffff160217905550600182018160010190816137739190615ae1565b50600282018160020190816137889190615ae1565b506003820160009054906101000a900473ffffffffffffffffffffffffffffffffffffffff168160030160006101000a81548173ffffffffffffffffffffffffffffffffffffffff021916908373ffffffffffffffffffffffffffffffffffffffff160217905550600482018160040190816138049190615ae1565b506005820160009054906101000a900460ff168160050160006101000a81548160ff0219169083151502179055506005820160019054906101000a900460ff168160050160016101000a81548160ff0219169083151502179055506005820160029054906101000a900460ff168160050160026101000a81548160ff02191690831515021790555060068201816006019080546138a2929190614962565b50600782015481600701556008820154816008015560098201548160090155905050505050505050565b6000600a826040516138de9190615836565b90815260200160405180910390209050600e60008473ffffffffffffffffffffffffffffffffffffffff1673ffffffffffffffffffffffffffffffffffffffff1681526020019081526020016000208290806001815401808255809150506001900390600052602060002001600090919091909150908161395f91906159f9565b508181600101908161397191906159f9565b50338160000160006101000a81548173ffffffffffffffffffffffffffffffffffffffff021916908373ffffffffffffffffffffffffffffffffffffffff160217905550600260008473ffffffffffffffffffffffffffffffffffffffff1673ffffffffffffffffffffffffffffffffffffffff16815260200190815260200160002060030182908060018154018082558091505060019003906000526020600020016000909190919091509081613a2991906159f9565b50505050565b613a37614afb565b600160008373ffffffffffffffffffffffffffffffffffffffff1673ffffffffffffffffffffffffffffffffffffffff1681526020019081526020016000206040518060e00160405290816000820154815260200160018201548152602001600282015481526020016003820154815260200160048201805480602002602001604051908101604052809291908181526020016000905b82821015613b7a578382906000526020600020018054613aed906157c9565b80601f0160208091040260200160405190810160405280929190818152602001828054613b19906157c9565b8015613b665780601f10613b3b57610100808354040283529160200191613b66565b820191906000526020600020905b815481529060010190602001808311613b4957829003601f168201915b505050505081526020019060010190613ace565b5050505081526020016005820160009054906101000a900473ffffffffffffffffffffffffffffffffffffffff1673ffffffffffffffffffffffffffffffffffffffff1673ffffffffffffffffffffffffffffffffffffffff1681526020016006820154815250509050919050565b81600260008473ffffffffffffffffffffffffffffffffffffffff1673ffffffffffffffffffffffffffffffffffffffff16815260200190815260200160002060050160006101000a81548173ffffffffffffffffffffffffffffffffffffffff021916908373ffffffffffffffffffffffffffffffffffffffff1602179055506000600260008473ffffffffffffffffffffffffffffffffffffffff1673ffffffffffffffffffffffffffffffffffffffff168152602001908152602001600020600001819055506000600260008473ffffffffffffffffffffffffffffffffffffffff1673ffffffffffffffffffffffffffffffffffffffff1681526020019081526020016000206002018190555080600260008473ffffffffffffffffffffffffffffffffffffffff1673ffffffffffffffffffffffffffffffffffffffff168152602001908152602001600020600101819055506001600960008473ffffffffffffffffffffffffffffffffffffffff1673ffffffffffffffffffffffffffffffffffffffff16815260200190815260200160002060006101000a81548160ff0219169083151502179055506001600460008473ffffffffffffffffffffffffffffffffffffffff1673ffffffffffffffffffffffffffffffffffffffff16815260200190815260200160002060006101000a81548160ff0219169083151502179055506005829080600181540180825580915050600190039060005260206000200160009091909190916101000a81548173ffffffffffffffffffffffffffffffffffffffff021916908373ffffffffffffffffffffffffffffffffffffffff1602179055505050565b60088181548110613e6857600080fd5b906000526020600020016000915090508054613e83906157c9565b80601f0160208091040260200160405190810160405280929190818152602001828054613eaf906157c9565b8015613efc5780601f10613ed157610100808354040283529160200191613efc565b820191906000526020600020905b815481529060010190602001808311613edf57829003601f168201915b505050505081565b613f0c614a15565b600d82604051613f1c9190615836565b9081526020016040518091039020604051806101800160405290816000820160009054906101000a900473ffffffffffffffffffffffffffffffffffffffff1673ffffffffffffffffffffffffffffffffffffffff1673ffffffffffffffffffffffffffffffffffffffff168152602001600182018054613f9c906157c9565b80601f0160208091040260200160405190810160405280929190818152602001828054613fc8906157c9565b80156140155780601f10613fea57610100808354040283529160200191614015565b820191906000526020600020905b815481529060010190602001808311613ff857829003601f168201915b5050505050815260200160028201805461402e906157c9565b80601f016020809104026020016040519081016040528092919081815260200182805461405a906157c9565b80156140a75780601f1061407c576101008083540402835291602001916140a7565b820191906000526020600020905b81548152906001019060200180831161408a57829003601f168201915b505050505081526020016003820160009054906101000a900473ffffffffffffffffffffffffffffffffffffffff1673ffffffffffffffffffffffffffffffffffffffff1673ffffffffffffffffffffffffffffffffffffffff168152602001600482018054614116906157c9565b80601f0160208091040260200160405190810160405280929190818152602001828054614142906157c9565b801561418f5780601f106141645761010080835404028352916020019161418f565b820191906000526020600020905b81548152906001019060200180831161417257829003601f168201915b505050505081526020016005820160009054906101000a900460ff161515151581526020016005820160019054906101000a900460ff161515151581526020016005820160029054906101000a900460ff161515151581526020016006820180548060200260200160405190810160405280929190818152602001828054801561426e57602002820191906000526020600020905b8160009054906101000a900473ffffffffffffffffffffffffffffffffffffffff1673ffffffffffffffffffffffffffffffffffffffff1681526020019060010190808311614224575b5050505050815260200160078201548152602001600882015481526020016009820154815250509050919050565b6060600f60008373ffffffffffffffffffffffffffffffffffffffff1673ffffffffffffffffffffffffffffffffffffffff168152602001908152602001600020805480602002602001604051908101604052809291908181526020016000905b828210156143a957838290600052602060002001805461431c906157c9565b80601f0160208091040260200160405190810160405280929190818152602001828054614348906157c9565b80156143955780601f1061436a57610100808354040283529160200191614395565b820191906000526020600020905b81548152906001019060200180831161437857829003601f168201915b5050505050815260200190600101906142fd565b505050509050919050565b600360003373ffffffffffffffffffffffffffffffffffffffff1673ffffffffffffffffffffffffffffffffffffffff16815260200190815260200160002060009054906101000a900460ff16614440576040517f08c379a000000000000000000000000000000000000000000000000000000000815260040161443790615f8b565b60405180910390fd5b6000600b836040516144529190615836565b90815260200160405180910390209050600015158160050160019054906101000a900460ff161515036146dd578181600401908161449091906159f9565b50338160030160006101000a81548173ffffffffffffffffffffffffffffffffffffffff021916908373ffffffffffffffffffffffffffffffffffffffff16021790555060018160050160016101000a81548160ff02191690831515021790555080600c846040516145029190615836565b90815260200160405180910390206000820160009054906101000a900473ffffffffffffffffffffffffffffffffffffffff168160000160006101000a81548173ffffffffffffffffffffffffffffffffffffffff021916908373ffffffffffffffffffffffffffffffffffffffff1602179055506001820181600101908161458b9190615ae1565b50600282018160020190816145a09190615ae1565b506003820160009054906101000a900473ffffffffffffffffffffffffffffffffffffffff168160030160006101000a81548173ffffffffffffffffffffffffffffffffffffffff021916908373ffffffffffffffffffffffffffffffffffffffff1602179055506004820181600401908161461c9190615ae1565b506005820160009054906101000a900460ff168160050160006101000a81548160ff0219169083151502179055506005820160019054906101000a900460ff168160050160016101000a81548160ff0219169083151502179055506005820160029054906101000a900460ff168160050160026101000a81548160ff02191690831515021790555060068201816006019080546146ba929190614962565b506007820154816007015560088201548160080155600982015481600901559050505b6002600160003373ffffffffffffffffffffffffffffffffffffffff1673ffffffffffffffffffffffffffffffffffffffff1681526020019081526020016000206002015461472c9190615ed7565b600160003373ffffffffffffffffffffffffffffffffffffffff1673ffffffffffffffffffffffffffffffffffffffff16815260200190815260200160002060020181905550600b836040516147829190615836565b9081526020016040518091039020600080820160006101000a81549073ffffffffffffffffffffffffffffffffffffffff02191690556001820160006147c891906149b4565b6002820160006147d891906149b4565b6003820160006101000a81549073ffffffffffffffffffffffffffffffffffffffff021916905560048201600061480f91906149b4565b6005820160006101000a81549060ff02191690556005820160016101000a81549060ff02191690556005820160026101000a81549060ff021916905560068201600061485b91906149f4565b600782016000905560088201600090556009820160009055505060106000600b856040516148899190615836565b908152602001604051809103902060000160009054906101000a900473ffffffffffffffffffffffffffffffffffffffff1673ffffffffffffffffffffffffffffffffffffffff1673ffffffffffffffffffffffffffffffffffffffff1681526020019081526020016000208390806001815401808255809150506001900390600052602060002001600090919091909150908161492791906159f9565b5060088390806001815401808255809150506001900390600052602060002001600090919091909150908161495c91906159f9565b50505050565b8280548282559060005260206000209081019282156149a35760005260206000209182015b828111156149a2578254825591600101919060010190614987565b5b5090506149b09190614b4e565b5090565b5080546149c0906157c9565b6000825580601f106149d257506149f1565b601f0160209004906000526020600020908101906149f09190614b4e565b5b50565b5080546000825590600052602060002090810190614a129190614b4e565b50565b604051806101800160405280600073ffffffffffffffffffffffffffffffffffffffff1681526020016060815260200160608152602001600073ffffffffffffffffffffffffffffffffffffffff16815260200160608152602001600015158152602001600015158152602001600015158152602001606081526020016000815260200160008152602001600081525090565b6040518060e001604052806000815260200160008152602001600081526020016060815260200160608152602001600073ffffffffffffffffffffffffffffffffffffffff168152602001600081525090565b6040518060e001604052806000815260200160008152602001600081526020016000815260200160608152602001600073ffffffffffffffffffffffffffffffffffffffff168152602001600081525090565b5b80821115614b67576000816000905550600101614b4f565b5090565b6000604051905090565b600080fd5b600080fd5b600073ffffffffffffffffffffffffffffffffffffffff82169050919050565b6000614baa82614b7f565b9050919050565b614bba81614b9f565b8114614bc557600080fd5b50565b600081359050614bd781614bb1565b92915050565b6000819050919050565b614bf081614bdd565b8114614bfb57600080fd5b50565b600081359050614c0d81614be7565b92915050565b60008060408385031215614c2a57614c29614b75565b5b6000614c3885828601614bc8565b9250506020614c4985828601614bfe565b9150509250929050565b600081519050919050565b600082825260208201905092915050565b60005b83811015614c8d578082015181840152602081019050614c72565b60008484015250505050565b6000601f19601f8301169050919050565b6000614cb582614c53565b614cbf8185614c5e565b9350614ccf818560208601614c6f565b614cd881614c99565b840191505092915050565b60006020820190508181036000830152614cfd8184614caa565b905092915050565b600080fd5b600080fd5b7f4e487b7100000000000000000000000000000000000000000000000000000000600052604160045260246000fd5b614d4782614c99565b810181811067ffffffffffffffff82111715614d6657614d65614d0f565b5b80604052505050565b6000614d79614b6b565b9050614d858282614d3e565b919050565b600067ffffffffffffffff821115614da557614da4614d0f565b5b614dae82614c99565b9050602081019050919050565b82818337600083830152505050565b6000614ddd614dd884614d8a565b614d6f565b905082815260208101848484011115614df957614df8614d0a565b5b614e04848285614dbb565b509392505050565b600082601f830112614e2157614e20614d05565b5b8135614e31848260208601614dca565b91505092915050565b600060208284031215614e5057614e4f614b75565b5b600082013567ffffffffffffffff811115614e6e57614e6d614b7a565b5b614e7a84828501614e0c565b91505092915050565b614e8c81614b9f565b82525050565b60008115159050919050565b614ea781614e92565b82525050565b614eb681614bdd565b82525050565b600061016082019050614ed2600083018e614e83565b8181036020830152614ee4818d614caa565b90508181036040830152614ef8818c614caa565b9050614f07606083018b614e83565b8181036080830152614f19818a614caa565b9050614f2860a0830189614e9e565b614f3560c0830188614e9e565b614f4260e0830187614e9e565b614f50610100830186614ead565b614f5e610120830185614ead565b614f6c610140830184614ead565b9c9b505050505050505050505050565b600081519050919050565b600082825260208201905092915050565b6000819050602082019050919050565b614fb181614b9f565b82525050565b6000614fc38383614fa8565b60208301905092915050565b6000602082019050919050565b6000614fe782614f7c565b614ff18185614f87565b9350614ffc83614f98565b8060005b8381101561502d5781516150148882614fb7565b975061501f83614fcf565b925050600181019050615000565b5085935050505092915050565b600060208201905081810360008301526150548184614fdc565b905092915050565b600081519050919050565b600082825260208201905092915050565b6000819050602082019050919050565b600082825260208201905092915050565b60006150a482614c53565b6150ae8185615088565b93506150be818560208601614c6f565b6150c781614c99565b840191505092915050565b60006150de8383615099565b905092915050565b6000602082019050919050565b60006150fe8261505c565b6151088185615067565b93508360208202850161511a85615078565b8060005b85811015615156578484038952815161513785826150d2565b9450615142836150e6565b925060208a0199505060018101905061511e565b50829750879550505050505092915050565b6000602082019050818103600083015261518281846150f3565b905092915050565b600080604083850312156151a1576151a0614b75565b5b600083013567ffffffffffffffff8111156151bf576151be614b7a565b5b6151cb85828601614e0c565b925050602083013567ffffffffffffffff8111156151ec576151eb614b7a565b5b6151f885828601614e0c565b9150509250929050565b61520b81614e92565b82525050565b600082825260208201905092915050565b600061522d82614f7c565b6152378185615211565b935061524283614f98565b8060005b8381101561527357815161525a8882614fb7565b975061526583614fcf565b925050600181019050615246565b5085935050505092915050565b61528981614bdd565b82525050565b6000610180830160008301516152a86000860182614fa8565b50602083015184820360208601526152c08282615099565b915050604083015184820360408601526152da8282615099565b91505060608301516152ef6060860182614fa8565b50608083015184820360808601526153078282615099565b91505060a083015161531c60a0860182615202565b5060c083015161532f60c0860182615202565b5060e083015161534260e0860182615202565b5061010083015184820361010086015261535c8282615222565b915050610120830151615373610120860182615280565b50610140830151615388610140860182615280565b5061016083015161539d610160860182615280565b508091505092915050565b600060208201905081810360008301526153c2818461528f565b905092915050565b6000602082840312156153e0576153df614b75565b5b60006153ee84828501614bc8565b91505092915050565b600082825260208201905092915050565b60006154138261505c565b61541d81856153f7565b93508360208202850161542f85615078565b8060005b8581101561546b578484038952815161544c85826150d2565b9450615457836150e6565b925060208a01995050600181019050615433565b50829750879550505050505092915050565b600060e0830160008301516154956000860182615280565b5060208301516154a86020860182615280565b5060408301516154bb6040860182615280565b50606083015184820360608601526154d38282615408565b915050608083015184820360808601526154ed8282615408565b91505060a083015161550260a0860182614fa8565b5060c083015161551560c0860182615280565b508091505092915050565b6000602082019050818103600083015261553a818461547d565b905092915050565b60006020820190506155576000830184614e9e565b92915050565b60008060006060848603121561557657615575614b75565b5b600061558486828701614bc8565b935050602061559586828701614bfe565b92505060406155a686828701614bfe565b9150509250925092565b6000602082840312156155c6576155c5614b75565b5b60006155d484828501614bfe565b91505092915050565b60006020820190506155f26000830184614e83565b92915050565b61560181614e92565b811461560c57600080fd5b50565b60008135905061561e816155f8565b92915050565b6000806040838503121561563b5761563a614b75565b5b600083013567ffffffffffffffff81111561565957615658614b7a565b5b61566585828601614e0c565b92505060206156768582860161560f565b9150509250929050565b6000806040838503121561569757615696614b75565b5b60006156a585828601614bc8565b925050602083013567ffffffffffffffff8111156156c6576156c5614b7a565b5b6156d285828601614e0c565b9150509250929050565b600060e0830160008301516156f46000860182615280565b5060208301516157076020860182615280565b50604083015161571a6040860182615280565b50606083015161572d6060860182615280565b50608083015184820360808601526157458282615408565b91505060a083015161575a60a0860182614fa8565b5060c083015161576d60c0860182615280565b508091505092915050565b6000602082019050818103600083015261579281846156dc565b905092915050565b7f4e487b7100000000000000000000000000000000000000000000000000000000600052602260045260246000fd5b600060028204905060018216806157e157607f821691505b6020821081036157f4576157f361579a565b5b50919050565b600081905092915050565b600061581082614c53565b61581a81856157fa565b935061582a818560208601614c6f565b80840191505092915050565b60006158428284615805565b915081905092915050565b60008190508160005260206000209050919050565b60006020601f8301049050919050565b600082821b905092915050565b6000600883026158af7fffffffffffffffffffffffffffffffffffffffffffffffffffffffffffffffff82615872565b6158b98683615872565b95508019841693508086168417925050509392505050565b6000819050919050565b60006158f66158f16158ec84614bdd565b6158d1565b614bdd565b9050919050565b6000819050919050565b615910836158db565b61592461591c826158fd565b84845461587f565b825550505050565b600090565b61593961592c565b615944818484615907565b505050565b5b818110156159685761595d600082615931565b60018101905061594a565b5050565b601f8211156159ad5761597e8161584d565b61598784615862565b81016020851015615996578190505b6159aa6159a285615862565b830182615949565b50505b505050565b600082821c905092915050565b60006159d0600019846008026159b2565b1980831691505092915050565b60006159e983836159bf565b9150826002028217905092915050565b615a0282614c53565b67ffffffffffffffff811115615a1b57615a1a614d0f565b5b615a2582546157c9565b615a3082828561596c565b600060209050601f831160018114615a635760008415615a51578287015190505b615a5b85826159dd565b865550615ac3565b601f198416615a718661584d565b60005b82811015615a9957848901518255600182019150602085019450602081019050615a74565b86831015615ab65784890151615ab2601f8916826159bf565b8355505b6001600288020188555050505b505050505050565b600081549050615ada816157c9565b9050919050565b818103615aef575050615bc7565b615af882615acb565b67ffffffffffffffff811115615b1157615b10614d0f565b5b615b1b82546157c9565b615b2682828561596c565b6000601f831160018114615b555760008415615b43578287015490505b615b4d85826159dd565b865550615bc0565b601f198416615b638761584d565b9650615b6e8661584d565b60005b82811015615b9657848901548255600182019150600185019450602081019050615b71565b86831015615bb35784890154615baf601f8916826159bf565b8355505b6001600288020188555050505b5050505050505b565b7f796f7520617265206e6f7420746865206b766b206d656d626572000000000000600082015250565b6000615bff601a83614c5e565b9150615c0a82615bc9565b602082019050919050565b60006020820190508181036000830152615c2e81615bf2565b9050919050565b7f796f7520617265206e6f74207665726966696572730000000000000000000000600082015250565b6000615c6b601583614c5e565b9150615c7682615c35565b602082019050919050565b60006020820190508181036000830152615c9a81615c5e565b9050919050565b7f796f752063616e742076657269667920796f7572206f776e20636f6d6d656e74600082015250565b6000615cd7602083614c5e565b9150615ce282615ca1565b602082019050919050565b60006020820190508181036000830152615d0681615cca565b9050919050565b7f796f7520617265206e6f7420616c6c6f77656420746f2076657269667920796f60008201527f7572206f776e20696d6167650000000000000000000000000000000000000000602082015250565b6000615d69602c83614c5e565b9150615d7482615d0d565b604082019050919050565b60006020820190508181036000830152615d9881615d5c565b9050919050565b7f4e487b7100000000000000000000000000000000000000000000000000000000600052603260045260246000fd5b7f4e487b7100000000000000000000000000000000000000000000000000000000600052601160045260246000fd5b6000615e0882614bdd565b91507fffffffffffffffffffffffffffffffffffffffffffffffffffffffffffffffff8203615e3a57615e39615dce565b5b600182019050919050565b7f796f75206861766520616c72656164792076657269666965642074686973206960008201527f6d61676500000000000000000000000000000000000000000000000000000000602082015250565b6000615ea1602483614c5e565b9150615eac82615e45565b604082019050919050565b60006020820190508181036000830152615ed081615e94565b9050919050565b6000615ee282614bdd565b9150615eed83614bdd565b9250828201905080821115615f0557615f04615dce565b5b92915050565b6000615f1682614bdd565b9150615f2183614bdd565b9250828203905081811115615f3957615f38615dce565b5b92915050565b7f796f7520617265206e6f7420736369656e7469737420746f2072657669657700600082015250565b6000615f75601f83614c5e565b9150615f8082615f3f565b602082019050919050565b60006020820190508181036000830152615fa481615f68565b905091905056fea2646970667358221220a5e246432e5bf1dd82942078a15f309d80e3dd90ba66d43a5b19bfb454eff19a64736f6c63430008130033",
  "linkReferences": {},
  "deployedLinkReferences": {}
}